:03000000020100FA
:080100003162319F31C980FE1C
:10013000C0007802313BD8FCD00022C000C001785A
:100140001479C7314ED9FCD8F8D001D00022C000B4
:1001500078043159D8FCD00022C00078F4D8FED001
:10016000002275900F7860D294C295C296C297759E
:10017000F008790143900F3130E590C4C399F6E55A
:1001800090C404C4F5900809D5F0E9759000786032
:1001900079617A04E7C426F608080909DAF6227AB2
:1001A0000478607970E6B4C000400477805014B4DD
:1001B000800040047740500BB4400040047720504A
:1001C000027710080809DADD227804797087903107
:0701D0003B09D8F980F3227E
:00000001FF
