:03000000020C0CE3
:0C0C0C00787FE4F6D8FD75817A020C5365
:100D03005361005265004761004D6100506100442A
:100D13006861004E690053696C0023242500534128
:100D2300284C4F5729005245004741004D41005080
:100D33004100444841004E4900534128484947482F
:0A0D4300290053494C454E4345007A
:100C980002190000100931323341343536423738F1
:100CA80039432A3023442051275341284C4F572990
:100CB800000052450000000000000047410000000D
:100CC800000000004D4100000000000000504100FD
:100CD8000000000000004448410000000000004EF1
:100CE80049000000000000005341284849474829AE
:0A0CF8000053494C454E43450000EF
:100D9100E4F5A0C282C280C2817F38FE120E5712D2
:100DA1000E157F067E00120E57120E157F0C7E0067
:100DB100120E57120E157F017E00120E57120E15DC
:070DC1007F807E00020E5747
:040E15007F047E00D8
:100E1900E4FDFCC3ED9FEC9E5015E4FBFA0BBB000F
:0F0E2900010ABA01F8BB7EF50DBD00010C80E493
:010E38002297
:100E5700C280C281D2828FA07F0A7E00120E19C281
:020E67008222E5
:100E6900D280C281D2828FA07F0A7E00120E19C25F
:020E79008222D3
:100DF0008B788A79897AAB78AA79A97A1208006007
:100E000013057AE57A7002057914F9120800FF12C9
:050E10000E6980E222E2
:100B0900EF24CFB409004003020BE6900B2275F0E5
:100B190003A4C58325F0C58373020B3D020B46026E
:100B29000B5B020B70020B84020B98020BAC020BDD
:100B3900C0020BD4751B00751CF0020BC6751B0196
:100B4900751C0E781D7C007D007BFF7A0D790602ED
:100B59000BF6751B01751C2C781D7C007D007BFF35
:100B69007A0D7909020BF6751B01751C40781D7CFD
:100B7900007D007BFF7A0D790C8072751B01751C55
:100B890068781D7C007D007BFF7A0D790F805E758A
:100B99001B01751C90781D7C007D007BFF7A0D7907
:100BA90012804A751B01751CC2781D7C007D007B73
:100BB900FF7A0D79168036751B01751CE0781D7C4E
:100BC900007D007BFF7A0D79038022E4F51BF51C7B
:100BD900781D7C00FD7BFF7A0D79198010E4F51BE7
:100BE900F51C781D7C00FD7BFF7A0D791D1208F339
:100BF900120D917F807E00120E577B007A00791DBD
:030C0900020DF0E9
:100DC800AB07AA06EA3395E0F9F87F407E427D0F2B
:100DD8007C00120D4D1208198E218F22EFF58AE53D
:080DE80021FFEFF58CD28C22F3
:03000B00020E39A9
:100E3900C0E0C0D075D000C007B280E522F58AE5D0
:0E0E490021FFEFF58CD28CD007D0D0D0E03254
:0A0E7B00758901D2A9D2AF020DC89B
:070E8500AF1CAE1B020E7B47
:1009DE00120D917F807E00120E57120E157BFF7A3C
:1009EE000D7921120DF075B00F75B00F85B008534B
:1009FE00080FE508B40FF27F147E00120E1985B0B1
:100A0E000853080FE508640F60ED75B0EF85B00868
:100A1E0053080FE508640F6005E4F520803475B0C7
:100A2E00DF85B00853080FE508640F6005752001D7
:100A3E00802075B0BF85B00853080FE508640F60BD
:100A4E0005752002800C75B07F85B00853080F75B0
:100A5E002003E508640E700AE52025E025E0240C4D
:100A6E00800EE508640D7028E52025E025E0240BB6
:100A7E00F8E6FF3395E0F5198F1A851A26AF25EFA4
:100A8E003395E0FEEF24FFF524EE34FFF523802F9F
:100A9E00E508640B7034E52025E025E0240AF8E62D
:100AAE00FF3395E0F5198F1A851A26AF25EF33958A
:100ABE00E0FEEF24FFF524EE34FFF523120E15AF02
:100ACE0026120B09120E850209F7E52025E025E016
:100ADE002409F8E6FF3395E0F5198F1A851A26AF2B
:100AEE0025EF3395E0FEEF24FFF524EE34FFF523DA
:0B0AFE00AF26120B09120E850209F74B
:100C18000209DEE493A3F8E493A34003F68001F20B
:100C280008DFF48029E493A3F85407240CC8C333DD
:100C3800C4540F4420C8834004F456800146F6DFAC
:100C4800E4800B0102040810204080900C98E47E98
:100C5800019360BCA3FF543F30E509541FFEE493A1
:100C6800A360010ECF54C025E060A840B8E493A368
:100C7800FAE493A3F8E493A3C8C582C8CAC583CA93
:100C8800F0A3C8C582C8CAC583CADFE9DEE780BE4B
:010D020000F0
:10080000BB010689828A83E0225002E722BBFE02F6
:09081000E32289828A83E4932229
:100D4D00C2D5E830E70FB2D5E4C39BFBE49AFAE4D1
:100D5D0099F9E498F8EC30E717B2D5120D83120922
:100D6D004CE4C39BFBE49AFAE499F9E498F8800308
:100D7D0012094C30D50DE4C39FFFE49EFEE49DFDAA
:040D8D00E49CFC22C4
:0E081900C3E49FFFE49EFEE49DFDE49CFC22F0
:10082700E709F60870FA8046E709F20870FA803E91
:1008370088828C83E709F0A370FA807EE309F608C3
:1008470070FA8076E309F20870FA806E88828C83EA
:10085700E309F0A370FA806289828A83E0A3F6082D
:1008670070FA805689828A83E0A3F20870FA804A78
:1008770080D280FA80C680D4806580F28031801073
:1008870080A680EA809A80A880DA80E280CA8031D8
:1008970089828A83ECFAE493A3C8C582C8CCC5834E
:1008A700CCF0A3C8C582C8CCC583CC70E9800D89BC
:1008B700828A83E493A3F60870F9ECFAA9F0EDFBBA
:1008C7002289828A83ECFAE0A3C8C582C8CCC58393
:1008D700CCF0A3C8C582C8CCC583CC70EA80DD89BB
:1008E700828A83E493A3F20870F980CE88F0ED241E
:1008F70002B4040050C4F582EB2402B4040050BAD9
:0909070023234582239008777335
:1009100075F008758200EF2FFFEE33FECD33CDCC9E
:1009200033CCC58233C5829BED9AEC99E582984021
:100930000CF582EE9BFEED9AFDEC99FC0FD5F0D6FE
:10094000E4CEFBE4CDFAE4CCF9A88222B800C1B928
:100950000059BA002DEC8BF084CFCECDFCE5F0CB66
:10096000F97818EF2FFFEE33FEED33FDEC33FCEB9F
:1009700033FB10D703994004EB99FB0FD8E5E4F95A
:10098000FA227818EF2FFFEE33FEED33FDEC33FC47
:10099000C933C910D7059BE99A4007EC9BFCE99A3B
:1009A000F90FD8E0E4C9FAE4CCFB2275F010EF2F80
:1009B000FFEE33FEED33FDCC33CCC833C810D70780
:1009C0009BEC9AE899400AED9BFDEC9AFCE899F8BB
:0E09D0000FD5F0DAE4CDFBE4CCFAE4C8F9224E
:00000001FF
