:03000000020F06E6
:0C0F0600787FE4F6D8FD75816B020F4D7A
:100F92000D0A00000000000000000000003C0F707D
:100FA2000A3D4466093E27F6023E8EFCBD3E8EFC9B
:100FB200BD3E27F6023D4466093C0F700A00000060
:0D0FC2000000000000000000000000000022
:04104700C101C10022
:100FF400E4FDFCC3ED9FEC9E5015E4FBFA0BBB0033
:0F100400010ABA01F8BB7EF50DBD00010C80E4B6
:0110130022BA
:10101400758920758DF3759850758840D2ACD2AF20
:0110240022A9
:08103F008F993001FDC201226E
:100FCF008B698A6A896BAB69AA6AA96B120BB360CA
:100FDF0013056BE56B7002056A14F9120BB3FF1260
:050FEF00103F80E2222A
:09103500E4FF3000FDC200AF9998
:01103E00228F
:03002300021025A3
:10102500309905C299D20132309804C298D2003263
:100C840078217C007D007BFF7A0F79957E007F05BB
:100C9400120B8D782A7C007D007BFF7A0F799A7E77
:100CA400007F05120B8D782F7C007D007BFF7A0F6F
:100CB400799F7E007F20120B8DE4F54FF55078511B
:100CC4007C00FD7BFF7A0F79BFFE7F10120B8DE451
:100CD400F564F563F562F561F565F566F567F56844
:100CE4001210141210358F211210358F2212103564
:100CF4008F231210358F24E4F525E52224D0FFE458
:100D040034FFFE7C007D64120BCCAA06AB07E52100
:100D140024D0FFE434FFFE7C037DE8120BCCEF2BE0
:100D2400FBEE3AFAE52324D0FFE434FFFE7C007D99
:100D34000A120BCCEF2BFFEE3AFEE52424D0FDEC97
:100D440034FFCD2FF527ED3EF526E52725E0F529DF
:100D5400E52633F528C3E5509408E54F6480948074
:100D64004003020E01E4F564F563F562F561E550B4
:100D740025E02451F8A62608A627E4F567F568E5DA
:100D8400502401FFE4354FFEC3E5689FEE6480F80C
:100D9400E567648098504CAB64AA63A962A861C0FB
:100DA40000C001C002C003E56825E02451F8E6FC58
:100DB40008E6FDEC120A03E56825E025E0242FF897
:100DC400120C221208F8D003D002D001D00012086D
:100DD400078F648E638D628C610568E56870A00579
:100DE40067809CAF64AE63AD62AC61120A3C8E65F1
:100DF4008F660550E5507002054F020E97E4F564C6
:100E0400F563F562F56185535185545285555385D3
:100E14005654855755855856855B59855C5A855D6A
:100E24005B855E5C855F5D85605E85265F8527608A
:100E3400F567F568AB64AA63A962A861C000C00144
:100E4400C002C003E56825E02451F8E6FC08E6FD8D
:100E5400EC120A03E56825E025E0242FF8120C22A1
:100E64001208F8D003D002D001D0001208078F6412
:100E74008E638D628C610568E5687002056764089D
:100E8400456770B0AF64AE63AD62AC61120A3C8E6C
:100E9400658F66AE65AF667C037DE8120BDEEF24DA
:100EA40030F52AAE65AF667C037DE8120BDE7E006A
:100EB4007F64CFCDCFCECCCE120BDEEF2430F52B1A
:100EC400AE65AF667C007D64120BDE7E007F0ACFC8
:100ED400CDCFCECCCE120BDEEF2430F52CAE65AFE9
:100EE400667C007D0A120BDEED2430F52D7B007A42
:100EF40000792A120FCF7BFF7A0F7992120FCF025B
:020F04000CE7F8
:10080000020AA8E86480F8E933E83360110460F074
:10081000ED33EC337009E8FCE9FDEAFEEBFF22045E
:1008200060DED3EB9FEA9EE99DE8C2E78CF0C2F759
:1008300095F0400CE8CCF8E9CDF9EACEFAEBCFFB25
:10084000120A7385D0F05804700320D5B3E8047001
:10085000075002B2D5020AB292D5EC0460F7E4CC9C
:10086000C0E0C398F8603B94186008400DD0E0FBEE
:10087000020A8AE4FBFAC9FC8028E830E406E4C9ED
:10088000FBE4CAFCE830E305E4C9CACBFCE8540742
:100890006010F8C3E913F9EA13FAEB13FBEC13FC4D
:1008A000D8F130F52FC3E49CFCEF9BFFEE9AFEEDF0
:1008B00099FDD0E0FBEF4E4D4C701222DB03020A93
:1008C000AFEC2CFCEF33FFEE33FEED33FDED30E704
:1008D000EB020A8AEF2BFFEE3AFEED39FDD0E0FB8A
:1008E00050130BBB0003020AB2ED13FDEE13FEEF33
:0808F00013FFEC13FC020A8A5D
:1008F800EC4D6011E8497017ED33EC3304600DE4FA
:10090800FCFFFEFD22E933E8330470F8020AA8125E
:100918000A7358046009E4CC24815006285009025F
:100928000AB2284003020AAFC0E0EB4A7044B9801B
:1009380006D0E0FB020A9EEF4E701CBD8008EBFF5C
:10094800EAFEE9FD80EBE98DF0A4FEE5F00209E19D
:10095800E9CDF9EAFEEBFFEF89F0A4FCE5F0CE89DA
:10096800F0A42EFFE435F0CD89F0A42DFEE435F097
:100978008067EF4E7005BD80D780C3EF8BF0A4ACC5
:10098800F0EE8BF0A42CFCE435F0F8EF8AF0A42C00
:10099800E5F038FCE433CB8DF0A42CFCE5F03BF813
:1009A800EE8AF0A42CFCE5F038F8E433CF89F0A403
:1009B8002CFCE5F038CF3400CE89F0A42FFFE5F009
:1009C8003EFEE433C98DF0A42EFEE5F039CD8AF061
:1009D800A42FFFE5F03EFEE43DFD33D0E0FB5007D9
:1009E8000BBB000F020AB2EC2CFCEF33FFEE33FE18
:0609F800ED33FD020A8A46
:1009FE0075F020800E75F010800575F0087D007E74
:100A0E00007F003392D530D503120C14EC33401016
:100A1E00EF33FFEE33FEED33FDEC33FCD5F0ED227C
:0E0A2E00E5F0247EA2D513CC92E7CDCEFF22B8
:100A3C00EDD2E7CD33EC3392D524814006E4FFFEB2
:100A4C00FDFC22FCE4CFCECDCC24E0501174FF8011
:100A5C00EDC3CC13CCCD13CDCE13CECF13CF0470AE
:070A6C00F030D5DE020C148E
:100A7300E9D2E7C933E833F892D5EDD2E7CD33ECC9
:070A830033FC5002B2D52242
:100A8A00EC30E7100FBF000C0EBE00080DBD0004CD
:100A9A000BEB6014A2D5EB13FCED92E7FD2274FF79
:100AAA00FCFDFEFF22E480F8A2D574FF13FC7D80D2
:030ABA00E480EFE6
:100F1200020C84E493A3F8E493A34003F68001F265
:100F220008DFF48029E493A3F85407240CC8C333E0
:100F3200C4540F4420C8834004F456800146F6DFAF
:100F4200E4800B0102040810204080901047E47EE8
:100F5200019360BCA3FF543F30E509541FFEE493A4
:100F6200A360010ECF54C025E060A840B8E493A36B
:100F7200FAE493A3F8E493A3C8C582C8CAC583CA96
:100F8200F0A3C8C582C8CAC583CADFE9DEE780BE4E
:01104B0000A4
:100ABD00E709F608DFFA8046E709F208DFFA803E1B
:100ACD0088828C83E709F0A3DFFA8032E309F60808
:100ADD00DFFA8078E309F208DFFA807088828C8370
:100AED00E309F0A3DFFA806489828A83E0A3F60824
:100AFD00DFFA805889828A83E0A3F208DFFA804CFE
:100B0D0080D280FA80C680D4806980F280338010D4
:100B1D0080A680EA809A80A880DA80E280CA80333D
:100B2D0089828A83ECFAE493A3C8C582C8CCC583B5
:100B3D00CCF0A3C8C582C8CCC583CCDFE9DEE78085
:100B4D000D89828A83E493A3F608DFF9ECFAA9F004
:100B5D00EDFB2289828A83ECFAE0A3C8C582C8CC5A
:100B6D00C583CCF0A3C8C582C8CCC583CCDFEADE73
:100B7D00E880DB89828A83E493A3F208DFF980CCD5
:100B8D0088F0EF60010E4E60C388F0ED2402B404CE
:100B9D000050B9F582EB2402B4040050AF23234575
:060BAD008223900B0D7382
:100BB300BB010689828A83E0225002E722BBFE0240
:090BC300E32289828A83E4932273
:100BCC00EF8DF0A4A8F0CF8CF0A428CE8DF0A42E3D
:020BDC00FE22F7
:100BDE00C2D5EC30E709B2D5E4C39DFDE49CFCEE32
:100BEE0030E715B2D5E4C39FFFE49EFE120C2FC36F
:100BFE00E49DFDE49CFC8003120C2F30D507C3E46A
:060C0E009FFFE49EFE22A0
:0E0C1400C3E49FFFE49EFEE49DFDE49CFC22F1
:0D0C2200E6FB08E6F908E6FA08E6CBF82242
:100C2F00BC000BBE0029EF8DF084FFADF022E4CCA9
:100C3F00F875F008EF2FFFEE33FEEC33FCEE9DEC72
:100C4F00984005FCEE9DFE0FD5F0E9E4CEFD22EDB8
:100C5F00F8F5F0EE8420D21CFEADF075F008EF2F02
:100C6F00FFED33FD4007985006D5F0F222C398FDF3
:050C7F000FD5F0EA2290
:00000001FF
